{
  "_format": "hh-sol-artifact-1",
  "contractName": "BlueRailroadV2",
  "sourceName": "contracts/BlueRailroad-v2.sol",
  "abi": [
    {
      "inputs": [
        {
          "internalType": "string",
          "name": "lembas_factory",
          "type": "string"
        },
        {
          "internalType": "address",
          "name": "initialOwner",
          "type": "address"
        },
        {
          "internalType": "string",
          "name": "_baseMetadataURI",
          "type": "string"
        }
      ],
      "stateMutability": "nonpayable",
      "type": "constructor"
    },
    {
      "inputs": [
        {
          "internalType": "address",
          "name": "sender",
          "type": "address"
        },
        {
          "internalType": "uint256",
          "name": "tokenId",
          "type": "uint256"
        },
        {
          "internalType": "address",
          "name": "owner",
          "type": "address"
        }
      ],
      "name": "ERC721IncorrectOwner",
      "type": "error"
    },
    {
      "inputs": [
        {
          "internalType": "address",
          "name": "operator",
          "type": "address"
        },
        {
          "internalType": "uint256",
          "name": "tokenId",
          "type": "uint256"
        }
      ],
      "name": "ERC721InsufficientApproval",
      "type": "error"
    },
    {
      "inputs": [
        {
          "internalType": "address",
          "name": "approver",
          "type": "address"
        }
      ],
      "name": "ERC721InvalidApprover",
      "type": "error"
    },
    {
      "inputs": [
        {
          "internalType": "address",
          "name": "operator",
          "type": "address"
        }
      ],
      "name": "ERC721InvalidOperator",
      "type": "error"
    },
    {
      "inputs": [
        {
          "internalType": "address",
          "name": "owner",
          "type": "address"
        }
      ],
      "name": "ERC721InvalidOwner",
      "type": "error"
    },
    {
      "inputs": [
        {
          "internalType": "address",
          "name": "receiver",
          "type": "address"
        }
      ],
      "name": "ERC721InvalidReceiver",
      "type": "error"
    },
    {
      "inputs": [
        {
          "internalType": "address",
          "name": "sender",
          "type": "address"
        }
      ],
      "name": "ERC721InvalidSender",
      "type": "error"
    },
    {
      "inputs": [
        {
          "internalType": "uint256",
          "name": "tokenId",
          "type": "uint256"
        }
      ],
      "name": "ERC721NonexistentToken",
      "type": "error"
    },
    {
      "inputs": [
        {
          "internalType": "address",
          "name": "owner",
          "type": "address"
        }
      ],
      "name": "OwnableInvalidOwner",
      "type": "error"
    },
    {
      "inputs": [
        {
          "internalType": "address",
          "name": "account",
          "type": "address"
        }
      ],
      "name": "OwnableUnauthorizedAccount",
      "type": "error"
    },
    {
      "anonymous": false,
      "inputs": [
        {
          "indexed": true,
          "internalType": "address",
          "name": "owner",
          "type": "address"
        },
        {
          "indexed": true,
          "internalType": "address",
          "name": "approved",
          "type": "address"
        },
        {
          "indexed": true,
          "internalType": "uint256",
          "name": "tokenId",
          "type": "uint256"
        }
      ],
      "name": "Approval",
      "type": "event"
    },
    {
      "anonymous": false,
      "inputs": [
        {
          "indexed": true,
          "internalType": "address",
          "name": "owner",
          "type": "address"
        },
        {
          "indexed": true,
          "internalType": "address",
          "name": "operator",
          "type": "address"
        },
        {
          "indexed": false,
          "internalType": "bool",
          "name": "approved",
          "type": "bool"
        }
      ],
      "name": "ApprovalForAll",
      "type": "event"
    },
    {
      "anonymous": false,
      "inputs": [
        {
          "indexed": false,
          "internalType": "uint256",
          "name": "_fromTokenId",
          "type": "uint256"
        },
        {
          "indexed": false,
          "internalType": "uint256",
          "name": "_toTokenId",
          "type": "uint256"
        }
      ],
      "name": "BatchMetadataUpdate",
      "type": "event"
    },
    {
      "anonymous": false,
      "inputs": [
        {
          "indexed": false,
          "internalType": "uint256",
          "name": "_tokenId",
          "type": "uint256"
        }
      ],
      "name": "MetadataUpdate",
      "type": "event"
    },
    {
      "anonymous": false,
      "inputs": [
        {
          "indexed": true,
          "internalType": "address",
          "name": "previousOwner",
          "type": "address"
        },
        {
          "indexed": true,
          "internalType": "address",
          "name": "newOwner",
          "type": "address"
        }
      ],
      "name": "OwnershipTransferred",
      "type": "event"
    },
    {
      "anonymous": false,
      "inputs": [
        {
          "indexed": true,
          "internalType": "address",
          "name": "from",
          "type": "address"
        },
        {
          "indexed": true,
          "internalType": "address",
          "name": "to",
          "type": "address"
        },
        {
          "indexed": true,
          "internalType": "uint256",
          "name": "tokenId",
          "type": "uint256"
        }
      ],
      "name": "Transfer",
      "type": "event"
    },
    {
      "inputs": [
        {
          "internalType": "address",
          "name": "to",
          "type": "address"
        },
        {
          "internalType": "uint256",
          "name": "tokenId",
          "type": "uint256"
        }
      ],
      "name": "approve",
      "outputs": [],
      "stateMutability": "nonpayable",
      "type": "function"
    },
    {
      "inputs": [
        {
          "internalType": "address",
          "name": "owner",
          "type": "address"
        }
      ],
      "name": "balanceOf",
      "outputs": [
        {
          "internalType": "uint256",
          "name": "",
          "type": "uint256"
        }
      ],
      "stateMutability": "view",
      "type": "function"
    },
    {
      "inputs": [],
      "name": "baseMetadataURI",
      "outputs": [
        {
          "internalType": "string",
          "name": "",
          "type": "string"
        }
      ],
      "stateMutability": "view",
      "type": "function"
    },
    {
      "inputs": [
        {
          "internalType": "uint256",
          "name": "tokenId",
          "type": "uint256"
        }
      ],
      "name": "getApproved",
      "outputs": [
        {
          "internalType": "address",
          "name": "",
          "type": "address"
        }
      ],
      "stateMutability": "view",
      "type": "function"
    },
    {
      "inputs": [
        {
          "internalType": "address",
          "name": "owner",
          "type": "address"
        },
        {
          "internalType": "address",
          "name": "operator",
          "type": "address"
        }
      ],
      "name": "isApprovedForAll",
      "outputs": [
        {
          "internalType": "bool",
          "name": "",
          "type": "bool"
        }
      ],
      "stateMutability": "view",
      "type": "function"
    },
    {
      "inputs": [
        {
          "internalType": "address",
          "name": "squatter",
          "type": "address"
        },
        {
          "internalType": "uint8",
          "name": "songId",
          "type": "uint8"
        },
        {
          "internalType": "uint32",
          "name": "blockHeight",
          "type": "uint32"
        },
        {
          "internalType": "string",
          "name": "metadataURI",
          "type": "string"
        }
      ],
      "name": "issueTony",
      "outputs": [],
      "stateMutability": "nonpayable",
      "type": "function"
    },
    {
      "inputs": [],
      "name": "name",
      "outputs": [
        {
          "internalType": "string",
          "name": "",
          "type": "string"
        }
      ],
      "stateMutability": "view",
      "type": "function"
    },
    {
      "inputs": [],
      "name": "owner",
      "outputs": [
        {
          "internalType": "address",
          "name": "",
          "type": "address"
        }
      ],
      "stateMutability": "view",
      "type": "function"
    },
    {
      "inputs": [
        {
          "internalType": "uint256",
          "name": "tokenId",
          "type": "uint256"
        }
      ],
      "name": "ownerOf",
      "outputs": [
        {
          "internalType": "address",
          "name": "",
          "type": "address"
        }
      ],
      "stateMutability": "view",
      "type": "function"
    },
    {
      "inputs": [],
      "name": "renounceOwnership",
      "outputs": [],
      "stateMutability": "nonpayable",
      "type": "function"
    },
    {
      "inputs": [
        {
          "internalType": "address",
          "name": "from",
          "type": "address"
        },
        {
          "internalType": "address",
          "name": "to",
          "type": "address"
        },
        {
          "internalType": "uint256",
          "name": "tokenId",
          "type": "uint256"
        }
      ],
      "name": "safeTransferFrom",
      "outputs": [],
      "stateMutability": "nonpayable",
      "type": "function"
    },
    {
      "inputs": [
        {
          "internalType": "address",
          "name": "from",
          "type": "address"
        },
        {
          "internalType": "address",
          "name": "to",
          "type": "address"
        },
        {
          "internalType": "uint256",
          "name": "tokenId",
          "type": "uint256"
        },
        {
          "internalType": "bytes",
          "name": "data",
          "type": "bytes"
        }
      ],
      "name": "safeTransferFrom",
      "outputs": [],
      "stateMutability": "nonpayable",
      "type": "function"
    },
    {
      "inputs": [
        {
          "internalType": "address",
          "name": "operator",
          "type": "address"
        },
        {
          "internalType": "bool",
          "name": "approved",
          "type": "bool"
        }
      ],
      "name": "setApprovalForAll",
      "outputs": [],
      "stateMutability": "nonpayable",
      "type": "function"
    },
    {
      "inputs": [
        {
          "internalType": "string",
          "name": "_newBaseURI",
          "type": "string"
        }
      ],
      "name": "setBaseMetadataURI",
      "outputs": [],
      "stateMutability": "nonpayable",
      "type": "function"
    },
    {
      "inputs": [
        {
          "internalType": "bytes4",
          "name": "interfaceId",
          "type": "bytes4"
        }
      ],
      "name": "supportsInterface",
      "outputs": [
        {
          "internalType": "bool",
          "name": "",
          "type": "bool"
        }
      ],
      "stateMutability": "view",
      "type": "function"
    },
    {
      "inputs": [],
      "name": "symbol",
      "outputs": [
        {
          "internalType": "string",
          "name": "",
          "type": "string"
        }
      ],
      "stateMutability": "view",
      "type": "function"
    },
    {
      "inputs": [
        {
          "internalType": "uint16",
          "name": "",
          "type": "uint16"
        }
      ],
      "name": "tokenIdToBlockHeight",
      "outputs": [
        {
          "internalType": "uint32",
          "name": "",
          "type": "uint32"
        }
      ],
      "stateMutability": "view",
      "type": "function"
    },
    {
      "inputs": [
        {
          "internalType": "uint16",
          "name": "",
          "type": "uint16"
        }
      ],
      "name": "tokenIdToMetadataURI",
      "outputs": [
        {
          "internalType": "string",
          "name": "",
          "type": "string"
        }
      ],
      "stateMutability": "view",
      "type": "function"
    },
    {
      "inputs": [
        {
          "internalType": "uint16",
          "name": "",
          "type": "uint16"
        }
      ],
      "name": "tokenIdToSongId",
      "outputs": [
        {
          "internalType": "uint8",
          "name": "",
          "type": "uint8"
        }
      ],
      "stateMutability": "view",
      "type": "function"
    },
    {
      "inputs": [
        {
          "internalType": "uint16",
          "name": "",
          "type": "uint16"
        }
      ],
      "name": "tokenIdToSquatter",
      "outputs": [
        {
          "internalType": "address",
          "name": "",
          "type": "address"
        }
      ],
      "stateMutability": "view",
      "type": "function"
    },
    {
      "inputs": [
        {
          "internalType": "uint256",
          "name": "tokenId",
          "type": "uint256"
        }
      ],
      "name": "tokenURI",
      "outputs": [
        {
          "internalType": "string",
          "name": "",
          "type": "string"
        }
      ],
      "stateMutability": "view",
      "type": "function"
    },
    {
      "inputs": [
        {
          "internalType": "address",
          "name": "from",
          "type": "address"
        },
        {
          "internalType": "address",
          "name": "to",
          "type": "address"
        },
        {
          "internalType": "uint256",
          "name": "tokenId",
          "type": "uint256"
        }
      ],
      "name": "transferFrom",
      "outputs": [],
      "stateMutability": "nonpayable",
      "type": "function"
    },
    {
      "inputs": [
        {
          "internalType": "address",
          "name": "newOwner",
          "type": "address"
        }
      ],
      "name": "transferOwnership",
      "outputs": [],
      "stateMutability": "nonpayable",
      "type": "function"
    }
  ],
  "bytecode": "0x608060405234801561001057600080fd5b506040516131a73803806131a7833981810160405281019061003291906103f4565b816040518060400160405280601781526020017f43727970746f477261737320506572666f726d616e63650000000000000000008152506040518060400160405280600681526020017f434750455246000000000000000000000000000000000000000000000000000081525081600090816100ae91906106a0565b5080600190816100be91906106a0565b505050600073ffffffffffffffffffffffffffffffffffffffff168173ffffffffffffffffffffffffffffffffffffffff16036101335760006040517f1e4fbdf700000000000000000000000000000000000000000000000000000000815260040161012a9190610781565b60405180910390fd5b6101428161015b60201b60201c565b5080600c908161015291906106a0565b5050505061079c565b6000600760009054906101000a900473ffffffffffffffffffffffffffffffffffffffff16905081600760006101000a81548173ffffffffffffffffffffffffffffffffffffffff021916908373ffffffffffffffffffffffffffffffffffffffff1602179055508173ffffffffffffffffffffffffffffffffffffffff168173ffffffffffffffffffffffffffffffffffffffff167f8be0079c531659141344cd1fd0a4f28419497f9722a3daafe3b4186f6b6457e060405160405180910390a35050565b6000604051905090565b600080fd5b600080fd5b600080fd5b600080fd5b6000601f19601f8301169050919050565b7f4e487b7100000000000000000000000000000000000000000000000000000000600052604160045260246000fd5b6102888261023f565b810181811067ffffffffffffffff821117156102a7576102a6610250565b5b80604052505050565b60006102ba610221565b90506102c6828261027f565b919050565b600067ffffffffffffffff8211156102e6576102e5610250565b5b6102ef8261023f565b9050602081019050919050565b60005b8381101561031a5780820151818401526020810190506102ff565b60008484015250505050565b6000610339610334846102cb565b6102b0565b9050828152602081018484840111156103555761035461023a565b5b6103608482856102fc565b509392505050565b600082601f83011261037d5761037c610235565b5b815161038d848260208601610326565b91505092915050565b600073ffffffffffffffffffffffffffffffffffffffff82169050919050565b60006103c182610396565b9050919050565b6103d1816103b6565b81146103dc57600080fd5b50565b6000815190506103ee816103c8565b92915050565b60008060006060848603121561040d5761040c61022b565b5b600084015167ffffffffffffffff81111561042b5761042a610230565b5b61043786828701610368565b9350506020610448868287016103df565b925050604084015167ffffffffffffffff81111561046957610468610230565b5b61047586828701610368565b9150509250925092565b600081519050919050565b7f4e487b7100000000000000000000000000000000000000000000000000000000600052602260045260246000fd5b600060028204905060018216806104d157607f821691505b6020821081036104e4576104e361048a565b5b50919050565b60008190508160005260206000209050919050565b60006020601f8301049050919050565b600082821b905092915050565b60006008830261054c7fffffffffffffffffffffffffffffffffffffffffffffffffffffffffffffffff8261050f565b610556868361050f565b95508019841693508086168417925050509392505050565b6000819050919050565b6000819050919050565b600061059d6105986105938461056e565b610578565b61056e565b9050919050565b6000819050919050565b6105b783610582565b6105cb6105c3826105a4565b84845461051c565b825550505050565b600090565b6105e06105d3565b6105eb8184846105ae565b505050565b5b8181101561060f576106046000826105d8565b6001810190506105f1565b5050565b601f82111561065457610625816104ea565b61062e846104ff565b8101602085101561063d578190505b610651610649856104ff565b8301826105f0565b50505b505050565b600082821c905092915050565b600061067760001984600802610659565b1980831691505092915050565b60006106908383610666565b9150826002028217905092915050565b6106a98261047f565b67ffffffffffffffff8111156106c2576106c1610250565b5b6106cc82546104b9565b6106d7828285610613565b600060209050601f83116001811461070a57600084156106f8578287015190505b6107028582610684565b86555061076a565b601f198416610718866104ea565b60005b828110156107405784890151825560018201915060208501945060208101905061071b565b8683101561075d5784890151610759601f891682610666565b8355505b6001600288020188555050505b505050505050565b61077b816103b6565b82525050565b60006020820190506107966000830184610772565b92915050565b6129fc806107ab6000396000f3fe608060405234801561001057600080fd5b506004361061014d5760003560e01c80637e518ec8116100c3578063c226be6a1161007c578063c226be6a1461039c578063c645d5b8146103cc578063c87b56dd146103e8578063d954592a14610418578063e985e9c514610448578063f2fde38b146104785761014d565b80637e518ec8146102dc57806382c050dd146102f85780638da5cb5b1461032857806395d89b4114610346578063a22cb46514610364578063b88d4fde146103805761014d565b806333765ae01161011557806333765ae01461020857806342842e0e146102385780635b2bd79e146102545780636352211e1461027257806370a08231146102a2578063715018a6146102d25761014d565b806301ffc9a71461015257806306fdde0314610182578063081812fc146101a0578063095ea7b3146101d057806323b872dd146101ec575b600080fd5b61016c60048036038101906101679190611bcb565b610494565b6040516101799190611c13565b60405180910390f35b61018a6104f5565b6040516101979190611cbe565b60405180910390f35b6101ba60048036038101906101b59190611d16565b610587565b6040516101c79190611d84565b60405180910390f35b6101ea60048036038101906101e59190611dcb565b6105a3565b005b61020660048036038101906102019190611e0b565b6105b9565b005b610222600480360381019061021d9190611e98565b6106bb565b60405161022f9190611d84565b60405180910390f35b610252600480360381019061024d9190611e0b565b6106ee565b005b61025c61070e565b6040516102699190611cbe565b60405180910390f35b61028c60048036038101906102879190611d16565b61079c565b6040516102999190611d84565b60405180910390f35b6102bc60048036038101906102b79190611ec5565b6107ae565b6040516102c99190611f01565b60405180910390f35b6102da610868565b005b6102f660048036038101906102f19190612051565b61087c565b005b610312600480360381019061030d9190611e98565b610897565b60405161031f9190611cbe565b60405180910390f35b610330610937565b60405161033d9190611d84565b60405180910390f35b61034e610961565b60405161035b9190611cbe565b60405180910390f35b61037e600480360381019061037991906120c6565b6109f3565b005b61039a600480360381019061039591906121a7565b610a09565b005b6103b660048036038101906103b19190611e98565b610a2e565b6040516103c39190612249565b60405180910390f35b6103e660048036038101906103e191906122c9565b610a51565b005b61040260048036038101906103fd9190611d16565b610bf4565b60405161040f9190611cbe565b60405180910390f35b610432600480360381019061042d9190611e98565b610cb1565b60405161043f919061235b565b60405180910390f35b610462600480360381019061045d9190612376565b610cd1565b60405161046f9190611c13565b60405180910390f35b610492600480360381019061048d9190611ec5565b610d65565b005b6000634906490660e01b7bffffffffffffffffffffffffffffffffffffffffffffffffffffffff1916827bffffffffffffffffffffffffffffffffffffffffffffffffffffffff191614806104ee57506104ed82610deb565b5b9050919050565b606060008054610504906123e5565b80601f0160208091040260200160405190810160405280929190818152602001828054610530906123e5565b801561057d5780601f106105525761010080835404028352916020019161057d565b820191906000526020600020905b81548152906001019060200180831161056057829003601f168201915b5050505050905090565b600061059282610ecd565b5061059c82610f55565b9050919050565b6105b582826105b0610f92565b610f9a565b5050565b600073ffffffffffffffffffffffffffffffffffffffff168273ffffffffffffffffffffffffffffffffffffffff160361062b5760006040517f64a0ae920000000000000000000000000000000000000000000000000000000081526004016106229190611d84565b60405180910390fd5b600061063f838361063a610f92565b610fac565b90508373ffffffffffffffffffffffffffffffffffffffff168173ffffffffffffffffffffffffffffffffffffffff16146106b5578382826040517f64283d7b0000000000000000000000000000000000000000000000000000000081526004016106ac93929190612416565b60405180910390fd5b50505050565b600b6020528060005260406000206000915054906101000a900473ffffffffffffffffffffffffffffffffffffffff1681565b61070983838360405180602001604052806000815250610a09565b505050565b600c805461071b906123e5565b80601f0160208091040260200160405190810160405280929190818152602001828054610747906123e5565b80156107945780601f1061076957610100808354040283529160200191610794565b820191906000526020600020905b81548152906001019060200180831161077757829003601f168201915b505050505081565b60006107a782610ecd565b9050919050565b60008073ffffffffffffffffffffffffffffffffffffffff168273ffffffffffffffffffffffffffffffffffffffff16036108215760006040517f89c62b640000000000000000000000000000000000000000000000000000000081526004016108189190611d84565b60405180910390fd5b600360008373ffffffffffffffffffffffffffffffffffffffff1673ffffffffffffffffffffffffffffffffffffffff168152602001908152602001600020549050919050565b6108706111c6565b61087a600061124d565b565b6108846111c6565b80600c908161089391906125f9565b5050565b600a60205280600052604060002060009150905080546108b6906123e5565b80601f01602080910402602001604051908101604052809291908181526020018280546108e2906123e5565b801561092f5780601f106109045761010080835404028352916020019161092f565b820191906000526020600020905b81548152906001019060200180831161091257829003601f168201915b505050505081565b6000600760009054906101000a900473ffffffffffffffffffffffffffffffffffffffff16905090565b606060018054610970906123e5565b80601f016020809104026020016040519081016040528092919081815260200182805461099c906123e5565b80156109e95780601f106109be576101008083540402835291602001916109e9565b820191906000526020600020905b8154815290600101906020018083116109cc57829003601f168201915b5050505050905090565b610a056109fe610f92565b8383611313565b5050565b610a148484846105b9565b610a28610a1f610f92565b85858585611482565b50505050565b60096020528060005260406000206000915054906101000a900463ffffffff1681565b610a596111c6565b60008360ff1611610a9f576040517f08c379a0000000000000000000000000000000000000000000000000000000008152600401610a9690612717565b60405180910390fd5b6001600760148282829054906101000a900461ffff16610abf9190612766565b92506101000a81548161ffff021916908361ffff1602179055506000600760149054906101000a900461ffff169050610afc858261ffff16611633565b83600860008361ffff1661ffff16815260200190815260200160002060006101000a81548160ff021916908360ff16021790555082600960008361ffff1661ffff16815260200190815260200160002060006101000a81548163ffffffff021916908363ffffffff16021790555081600a60008361ffff1661ffff1681526020019081526020016000209081610b9291906125f9565b5084600b60008361ffff1661ffff16815260200190815260200160002060006101000a81548173ffffffffffffffffffffffffffffffffffffffff021916908373ffffffffffffffffffffffffffffffffffffffff1602179055505050505050565b6060600073ffffffffffffffffffffffffffffffffffffffff16610c1783611651565b73ffffffffffffffffffffffffffffffffffffffff1603610c6d576040517f08c379a0000000000000000000000000000000000000000000000000000000008152600401610c64906127e8565b60405180910390fd5b600c600a60008461ffff1661ffff168152602001908152602001600020604051602001610c9b929190612896565b6040516020818303038152906040529050919050565b60086020528060005260406000206000915054906101000a900460ff1681565b6000600560008473ffffffffffffffffffffffffffffffffffffffff1673ffffffffffffffffffffffffffffffffffffffff16815260200190815260200160002060008373ffffffffffffffffffffffffffffffffffffffff1673ffffffffffffffffffffffffffffffffffffffff16815260200190815260200160002060009054906101000a900460ff16905092915050565b610d6d6111c6565b600073ffffffffffffffffffffffffffffffffffffffff168173ffffffffffffffffffffffffffffffffffffffff1603610ddf5760006040517f1e4fbdf7000000000000000000000000000000000000000000000000000000008152600401610dd69190611d84565b60405180910390fd5b610de88161124d565b50565b60007f80ac58cd000000000000000000000000000000000000000000000000000000007bffffffffffffffffffffffffffffffffffffffffffffffffffffffff1916827bffffffffffffffffffffffffffffffffffffffffffffffffffffffff19161480610eb657507f5b5e139f000000000000000000000000000000000000000000000000000000007bffffffffffffffffffffffffffffffffffffffffffffffffffffffff1916827bffffffffffffffffffffffffffffffffffffffffffffffffffffffff1916145b80610ec65750610ec58261168e565b5b9050919050565b600080610ed983611651565b9050600073ffffffffffffffffffffffffffffffffffffffff168173ffffffffffffffffffffffffffffffffffffffff1603610f4c57826040517f7e273289000000000000000000000000000000000000000000000000000000008152600401610f439190611f01565b60405180910390fd5b80915050919050565b60006004600083815260200190815260200160002060009054906101000a900473ffffffffffffffffffffffffffffffffffffffff169050919050565b600033905090565b610fa783838360016116f8565b505050565b600080610fb884611651565b9050600073ffffffffffffffffffffffffffffffffffffffff168373ffffffffffffffffffffffffffffffffffffffff1614610ffa57610ff98184866118bd565b5b600073ffffffffffffffffffffffffffffffffffffffff168173ffffffffffffffffffffffffffffffffffffffff161461108b5761103c6000856000806116f8565b6001600360008373ffffffffffffffffffffffffffffffffffffffff1673ffffffffffffffffffffffffffffffffffffffff168152602001908152602001600020600082825403925050819055505b600073ffffffffffffffffffffffffffffffffffffffff168573ffffffffffffffffffffffffffffffffffffffff161461110e576001600360008773ffffffffffffffffffffffffffffffffffffffff1673ffffffffffffffffffffffffffffffffffffffff168152602001908152602001600020600082825401925050819055505b846002600086815260200190815260200160002060006101000a81548173ffffffffffffffffffffffffffffffffffffffff021916908373ffffffffffffffffffffffffffffffffffffffff160217905550838573ffffffffffffffffffffffffffffffffffffffff168273ffffffffffffffffffffffffffffffffffffffff167fddf252ad1be2c89b69c2b068fc378daa952ba7f163c4a11628f55a4df523b3ef60405160405180910390a4809150509392505050565b6111ce610f92565b73ffffffffffffffffffffffffffffffffffffffff166111ec610937565b73ffffffffffffffffffffffffffffffffffffffff161461124b5761120f610f92565b6040517f118cdaa70000000000000000000000000000000000000000000000000000000081526004016112429190611d84565b60405180910390fd5b565b6000600760009054906101000a900473ffffffffffffffffffffffffffffffffffffffff16905081600760006101000a81548173ffffffffffffffffffffffffffffffffffffffff021916908373ffffffffffffffffffffffffffffffffffffffff1602179055508173ffffffffffffffffffffffffffffffffffffffff168173ffffffffffffffffffffffffffffffffffffffff167f8be0079c531659141344cd1fd0a4f28419497f9722a3daafe3b4186f6b6457e060405160405180910390a35050565b600073ffffffffffffffffffffffffffffffffffffffff168273ffffffffffffffffffffffffffffffffffffffff160361138457816040517f5b08ba1800000000000000000000000000000000000000000000000000000000815260040161137b9190611d84565b60405180910390fd5b80600560008573ffffffffffffffffffffffffffffffffffffffff1673ffffffffffffffffffffffffffffffffffffffff16815260200190815260200160002060008473ffffffffffffffffffffffffffffffffffffffff1673ffffffffffffffffffffffffffffffffffffffff16815260200190815260200160002060006101000a81548160ff0219169083151502179055508173ffffffffffffffffffffffffffffffffffffffff168373ffffffffffffffffffffffffffffffffffffffff167f17307eab39ab6107e8899845ad3d59bd9653f200f220920489ca2b5937696c31836040516114759190611c13565b60405180910390a3505050565b60008373ffffffffffffffffffffffffffffffffffffffff163b111561162c578273ffffffffffffffffffffffffffffffffffffffff1663150b7a02868685856040518563ffffffff1660e01b81526004016114e1949392919061290f565b6020604051808303816000875af192505050801561151d57506040513d601f19601f8201168201806040525081019061151a9190612970565b60015b6115a1573d806000811461154d576040519150601f19603f3d011682016040523d82523d6000602084013e611552565b606091505b50600081510361159957836040517f64a0ae920000000000000000000000000000000000000000000000000000000081526004016115909190611d84565b60405180910390fd5b805181602001fd5b63150b7a0260e01b7bffffffffffffffffffffffffffffffffffffffffffffffffffffffff1916817bffffffffffffffffffffffffffffffffffffffffffffffffffffffff19161461162a57836040517f64a0ae920000000000000000000000000000000000000000000000000000000081526004016116219190611d84565b60405180910390fd5b505b5050505050565b61164d828260405180602001604052806000815250611981565b5050565b60006002600083815260200190815260200160002060009054906101000a900473ffffffffffffffffffffffffffffffffffffffff169050919050565b60007f01ffc9a7000000000000000000000000000000000000000000000000000000007bffffffffffffffffffffffffffffffffffffffffffffffffffffffff1916827bffffffffffffffffffffffffffffffffffffffffffffffffffffffff1916149050919050565b80806117315750600073ffffffffffffffffffffffffffffffffffffffff168273ffffffffffffffffffffffffffffffffffffffff1614155b1561186557600061174184610ecd565b9050600073ffffffffffffffffffffffffffffffffffffffff168373ffffffffffffffffffffffffffffffffffffffff16141580156117ac57508273ffffffffffffffffffffffffffffffffffffffff168173ffffffffffffffffffffffffffffffffffffffff1614155b80156117bf57506117bd8184610cd1565b155b1561180157826040517fa9fbf51f0000000000000000000000000000000000000000000000000000000081526004016117f89190611d84565b60405180910390fd5b811561186357838573ffffffffffffffffffffffffffffffffffffffff168273ffffffffffffffffffffffffffffffffffffffff167f8c5be1e5ebec7d5bd14f71427d1e84f3dd0314c0f7b2291e5b200ac8c7c3b92560405160405180910390a45b505b836004600085815260200190815260200160002060006101000a81548173ffffffffffffffffffffffffffffffffffffffff021916908373ffffffffffffffffffffffffffffffffffffffff16021790555050505050565b6118c88383836119a5565b61197c57600073ffffffffffffffffffffffffffffffffffffffff168373ffffffffffffffffffffffffffffffffffffffff160361193d57806040517f7e2732890000000000000000000000000000000000000000000000000000000081526004016119349190611f01565b60405180910390fd5b81816040517f177e802f00000000000000000000000000000000000000000000000000000000815260040161197392919061299d565b60405180910390fd5b505050565b61198b8383611a66565b6119a0611996610f92565b6000858585611482565b505050565b60008073ffffffffffffffffffffffffffffffffffffffff168373ffffffffffffffffffffffffffffffffffffffff1614158015611a5d57508273ffffffffffffffffffffffffffffffffffffffff168473ffffffffffffffffffffffffffffffffffffffff161480611a1e5750611a1d8484610cd1565b5b80611a5c57508273ffffffffffffffffffffffffffffffffffffffff16611a4483610f55565b73ffffffffffffffffffffffffffffffffffffffff16145b5b90509392505050565b600073ffffffffffffffffffffffffffffffffffffffff168273ffffffffffffffffffffffffffffffffffffffff1603611ad85760006040517f64a0ae92000000000000000000000000000000000000000000000000000000008152600401611acf9190611d84565b60405180910390fd5b6000611ae683836000610fac565b9050600073ffffffffffffffffffffffffffffffffffffffff168173ffffffffffffffffffffffffffffffffffffffff1614611b5a5760006040517f73c6ac6e000000000000000000000000000000000000000000000000000000008152600401611b519190611d84565b60405180910390fd5b505050565b6000604051905090565b600080fd5b600080fd5b60007fffffffff0000000000000000000000000000000000000000000000000000000082169050919050565b611ba881611b73565b8114611bb357600080fd5b50565b600081359050611bc581611b9f565b92915050565b600060208284031215611be157611be0611b69565b5b6000611bef84828501611bb6565b91505092915050565b60008115159050919050565b611c0d81611bf8565b82525050565b6000602082019050611c286000830184611c04565b92915050565b600081519050919050565b600082825260208201905092915050565b60005b83811015611c68578082015181840152602081019050611c4d565b60008484015250505050565b6000601f19601f8301169050919050565b6000611c9082611c2e565b611c9a8185611c39565b9350611caa818560208601611c4a565b611cb381611c74565b840191505092915050565b60006020820190508181036000830152611cd88184611c85565b905092915050565b6000819050919050565b611cf381611ce0565b8114611cfe57600080fd5b50565b600081359050611d1081611cea565b92915050565b600060208284031215611d2c57611d2b611b69565b5b6000611d3a84828501611d01565b91505092915050565b600073ffffffffffffffffffffffffffffffffffffffff82169050919050565b6000611d6e82611d43565b9050919050565b611d7e81611d63565b82525050565b6000602082019050611d996000830184611d75565b92915050565b611da881611d63565b8114611db357600080fd5b50565b600081359050611dc581611d9f565b92915050565b60008060408385031215611de257611de1611b69565b5b6000611df085828601611db6565b9250506020611e0185828601611d01565b9150509250929050565b600080600060608486031215611e2457611e23611b69565b5b6000611e3286828701611db6565b9350506020611e4386828701611db6565b9250506040611e5486828701611d01565b9150509250925092565b600061ffff82169050919050565b611e7581611e5e565b8114611e8057600080fd5b50565b600081359050611e9281611e6c565b92915050565b600060208284031215611eae57611ead611b69565b5b6000611ebc84828501611e83565b91505092915050565b600060208284031215611edb57611eda611b69565b5b6000611ee984828501611db6565b91505092915050565b611efb81611ce0565b82525050565b6000602082019050611f166000830184611ef2565b92915050565b600080fd5b600080fd5b7f4e487b7100000000000000000000000000000000000000000000000000000000600052604160045260246000fd5b611f5e82611c74565b810181811067ffffffffffffffff82111715611f7d57611f7c611f26565b5b80604052505050565b6000611f90611b5f565b9050611f9c8282611f55565b919050565b600067ffffffffffffffff821115611fbc57611fbb611f26565b5b611fc582611c74565b9050602081019050919050565b82818337600083830152505050565b6000611ff4611fef84611fa1565b611f86565b9050828152602081018484840111156120105761200f611f21565b5b61201b848285611fd2565b509392505050565b600082601f83011261203857612037611f1c565b5b8135612048848260208601611fe1565b91505092915050565b60006020828403121561206757612066611b69565b5b600082013567ffffffffffffffff81111561208557612084611b6e565b5b61209184828501612023565b91505092915050565b6120a381611bf8565b81146120ae57600080fd5b50565b6000813590506120c08161209a565b92915050565b600080604083850312156120dd576120dc611b69565b5b60006120eb85828601611db6565b92505060206120fc858286016120b1565b9150509250929050565b600067ffffffffffffffff82111561212157612120611f26565b5b61212a82611c74565b9050602081019050919050565b600061214a61214584612106565b611f86565b90508281526020810184848401111561216657612165611f21565b5b612171848285611fd2565b509392505050565b600082601f83011261218e5761218d611f1c565b5b813561219e848260208601612137565b91505092915050565b600080600080608085870312156121c1576121c0611b69565b5b60006121cf87828801611db6565b94505060206121e087828801611db6565b93505060406121f187828801611d01565b925050606085013567ffffffffffffffff81111561221257612211611b6e565b5b61221e87828801612179565b91505092959194509250565b600063ffffffff82169050919050565b6122438161222a565b82525050565b600060208201905061225e600083018461223a565b92915050565b600060ff82169050919050565b61227a81612264565b811461228557600080fd5b50565b60008135905061229781612271565b92915050565b6122a68161222a565b81146122b157600080fd5b50565b6000813590506122c38161229d565b92915050565b600080600080608085870312156122e3576122e2611b69565b5b60006122f187828801611db6565b945050602061230287828801612288565b9350506040612313878288016122b4565b925050606085013567ffffffffffffffff81111561233457612333611b6e565b5b61234087828801612023565b91505092959194509250565b61235581612264565b82525050565b6000602082019050612370600083018461234c565b92915050565b6000806040838503121561238d5761238c611b69565b5b600061239b85828601611db6565b92505060206123ac85828601611db6565b9150509250929050565b7f4e487b7100000000000000000000000000000000000000000000000000000000600052602260045260246000fd5b600060028204905060018216806123fd57607f821691505b6020821081036124105761240f6123b6565b5b50919050565b600060608201905061242b6000830186611d75565b6124386020830185611ef2565b6124456040830184611d75565b949350505050565b60008190508160005260206000209050919050565b60006020601f8301049050919050565b600082821b905092915050565b6000600883026124af7fffffffffffffffffffffffffffffffffffffffffffffffffffffffffffffffff82612472565b6124b98683612472565b95508019841693508086168417925050509392505050565b6000819050919050565b60006124f66124f16124ec84611ce0565b6124d1565b611ce0565b9050919050565b6000819050919050565b612510836124db565b61252461251c826124fd565b84845461247f565b825550505050565b600090565b61253961252c565b612544818484612507565b505050565b5b818110156125685761255d600082612531565b60018101905061254a565b5050565b601f8211156125ad5761257e8161244d565b61258784612462565b81016020851015612596578190505b6125aa6125a285612462565b830182612549565b50505b505050565b600082821c905092915050565b60006125d0600019846008026125b2565b1980831691505092915050565b60006125e983836125bf565b9150826002028217905092915050565b61260282611c2e565b67ffffffffffffffff81111561261b5761261a611f26565b5b61262582546123e5565b61263082828561256c565b600060209050601f8311600181146126635760008415612651578287015190505b61265b85826125dd565b8655506126c3565b601f1984166126718661244d565b60005b8281101561269957848901518255600182019150602085019450602081019050612674565b868310156126b657848901516126b2601f8916826125bf565b8355505b6001600288020188555050505b505050505050565b7f496e76616c696420736f6e672049440000000000000000000000000000000000600082015250565b6000612701600f83611c39565b915061270c826126cb565b602082019050919050565b60006020820190508181036000830152612730816126f4565b9050919050565b7f4e487b7100000000000000000000000000000000000000000000000000000000600052601160045260246000fd5b600061277182611e5e565b915061277c83611e5e565b9250828201905061ffff81111561279657612795612737565b5b92915050565b7f546f6b656e20646f6573206e6f74206578697374000000000000000000000000600082015250565b60006127d2601483611c39565b91506127dd8261279c565b602082019050919050565b60006020820190508181036000830152612801816127c5565b9050919050565b600081905092915050565b60008154612820816123e5565b61282a8186612808565b94506001821660008114612845576001811461285a5761288d565b60ff198316865281151582028601935061288d565b6128638561244d565b60005b8381101561288557815481890152600182019150602081019050612866565b838801955050505b50505092915050565b60006128a28285612813565b91506128ae8284612813565b91508190509392505050565b600081519050919050565b600082825260208201905092915050565b60006128e1826128ba565b6128eb81856128c5565b93506128fb818560208601611c4a565b61290481611c74565b840191505092915050565b60006080820190506129246000830187611d75565b6129316020830186611d75565b61293e6040830185611ef2565b818103606083015261295081846128d6565b905095945050505050565b60008151905061296a81611b9f565b92915050565b60006020828403121561298657612985611b69565b5b60006129948482850161295b565b91505092915050565b60006040820190506129b26000830185611d75565b6129bf6020830184611ef2565b939250505056fea26469706673582212201c357a53e70a468bd4ddcb0be205c727cf342cf6b8090677ee7723e0037f014964736f6c634300081c0033",
  "linkReferences": {},
  "deployedLinkReferences": {}
}